{
  "_format": "hh-sol-artifact-1",
  "contractName": "TestToken",
  "sourceName": "contracts/TestToken.sol",
  "abi": [
    {
      "inputs": [],
      "stateMutability": "nonpayable",
      "type": "constructor"
    },
    {
      "inputs": [
        {
          "internalType": "address",
          "name": "spender",
          "type": "address"
        },
        {
          "internalType": "uint256",
          "name": "allowance",
          "type": "uint256"
        },
        {
          "internalType": "uint256",
          "name": "needed",
          "type": "uint256"
        }
      ],
      "name": "ERC20InsufficientAllowance",
      "type": "error"
    },
    {
      "inputs": [
        {
          "internalType": "address",
          "name": "sender",
          "type": "address"
        },
        {
          "internalType": "uint256",
          "name": "balance",
          "type": "uint256"
        },
        {
          "internalType": "uint256",
          "name": "needed",
          "type": "uint256"
        }
      ],
      "name": "ERC20InsufficientBalance",
      "type": "error"
    },
    {
      "inputs": [
        {
          "internalType": "address",
          "name": "approver",
          "type": "address"
        }
      ],
      "name": "ERC20InvalidApprover",
      "type": "error"
    },
    {
      "inputs": [
        {
          "internalType": "address",
          "name": "receiver",
          "type": "address"
        }
      ],
      "name": "ERC20InvalidReceiver",
      "type": "error"
    },
    {
      "inputs": [
        {
          "internalType": "address",
          "name": "sender",
          "type": "address"
        }
      ],
      "name": "ERC20InvalidSender",
      "type": "error"
    },
    {
      "inputs": [
        {
          "internalType": "address",
          "name": "spender",
          "type": "address"
        }
      ],
      "name": "ERC20InvalidSpender",
      "type": "error"
    },
    {
      "anonymous": false,
      "inputs": [
        {
          "indexed": true,
          "internalType": "address",
          "name": "owner",
          "type": "address"
        },
        {
          "indexed": true,
          "internalType": "address",
          "name": "spender",
          "type": "address"
        },
        {
          "indexed": false,
          "internalType": "uint256",
          "name": "value",
          "type": "uint256"
        }
      ],
      "name": "Approval",
      "type": "event"
    },
    {
      "anonymous": false,
      "inputs": [
        {
          "indexed": true,
          "internalType": "address",
          "name": "from",
          "type": "address"
        },
        {
          "indexed": true,
          "internalType": "address",
          "name": "to",
          "type": "address"
        },
        {
          "indexed": false,
          "internalType": "uint256",
          "name": "value",
          "type": "uint256"
        }
      ],
      "name": "Transfer",
      "type": "event"
    },
    {
      "inputs": [
        {
          "internalType": "address",
          "name": "owner",
          "type": "address"
        },
        {
          "internalType": "address",
          "name": "spender",
          "type": "address"
        }
      ],
      "name": "allowance",
      "outputs": [
        {
          "internalType": "uint256",
          "name": "",
          "type": "uint256"
        }
      ],
      "stateMutability": "view",
      "type": "function"
    },
    {
      "inputs": [
        {
          "internalType": "address",
          "name": "spender",
          "type": "address"
        },
        {
          "internalType": "uint256",
          "name": "value",
          "type": "uint256"
        }
      ],
      "name": "approve",
      "outputs": [
        {
          "internalType": "bool",
          "name": "",
          "type": "bool"
        }
      ],
      "stateMutability": "nonpayable",
      "type": "function"
    },
    {
      "inputs": [
        {
          "internalType": "address",
          "name": "account",
          "type": "address"
        }
      ],
      "name": "balanceOf",
      "outputs": [
        {
          "internalType": "uint256",
          "name": "",
          "type": "uint256"
        }
      ],
      "stateMutability": "view",
      "type": "function"
    },
    {
      "inputs": [
        {
          "internalType": "uint256",
          "name": "value",
          "type": "uint256"
        }
      ],
      "name": "burn",
      "outputs": [],
      "stateMutability": "nonpayable",
      "type": "function"
    },
    {
      "inputs": [
        {
          "internalType": "address",
          "name": "account",
          "type": "address"
        },
        {
          "internalType": "uint256",
          "name": "value",
          "type": "uint256"
        }
      ],
      "name": "burnFrom",
      "outputs": [],
      "stateMutability": "nonpayable",
      "type": "function"
    },
    {
      "inputs": [],
      "name": "decimals",
      "outputs": [
        {
          "internalType": "uint8",
          "name": "",
          "type": "uint8"
        }
      ],
      "stateMutability": "view",
      "type": "function"
    },
    {
      "inputs": [],
      "name": "name",
      "outputs": [
        {
          "internalType": "string",
          "name": "",
          "type": "string"
        }
      ],
      "stateMutability": "view",
      "type": "function"
    },
    {
      "inputs": [],
      "name": "symbol",
      "outputs": [
        {
          "internalType": "string",
          "name": "",
          "type": "string"
        }
      ],
      "stateMutability": "view",
      "type": "function"
    },
    {
      "inputs": [],
      "name": "totalSupply",
      "outputs": [
        {
          "internalType": "uint256",
          "name": "",
          "type": "uint256"
        }
      ],
      "stateMutability": "view",
      "type": "function"
    },
    {
      "inputs": [
        {
          "internalType": "address",
          "name": "to",
          "type": "address"
        },
        {
          "internalType": "uint256",
          "name": "value",
          "type": "uint256"
        }
      ],
      "name": "transfer",
      "outputs": [
        {
          "internalType": "bool",
          "name": "",
          "type": "bool"
        }
      ],
      "stateMutability": "nonpayable",
      "type": "function"
    },
    {
      "inputs": [
        {
          "internalType": "address",
          "name": "from",
          "type": "address"
        },
        {
          "internalType": "address",
          "name": "to",
          "type": "address"
        },
        {
          "internalType": "uint256",
          "name": "value",
          "type": "uint256"
        }
      ],
      "name": "transferFrom",
      "outputs": [
        {
          "internalType": "bool",
          "name": "",
          "type": "bool"
        }
      ],
      "stateMutability": "nonpayable",
      "type": "function"
    }
  ],
  "bytecode": "0x608060405234801561001057600080fd5b506040518060400160405280600981526020017f54657374546f6b656e00000000000000000000000000000000000000000000008152506040518060400160405280600281526020017f5454000000000000000000000000000000000000000000000000000000000000815250816003908161008c91906105bb565b50806004908161009c91906105bb565b5050506100b93369d3c21bcecceda10000006100be60201b60201c565b6107ad565b600073ffffffffffffffffffffffffffffffffffffffff168273ffffffffffffffffffffffffffffffffffffffff16036101305760006040517fec442f0500000000000000000000000000000000000000000000000000000000815260040161012791906106ce565b60405180910390fd5b6101426000838361014660201b60201c565b5050565b600073ffffffffffffffffffffffffffffffffffffffff168373ffffffffffffffffffffffffffffffffffffffff160361019857806002600082825461018c9190610718565b9250508190555061026b565b60008060008573ffffffffffffffffffffffffffffffffffffffff1673ffffffffffffffffffffffffffffffffffffffff16815260200190815260200160002054905081811015610224578381836040517fe450d38c00000000000000000000000000000000000000000000000000000000815260040161021b9392919061075b565b60405180910390fd5b8181036000808673ffffffffffffffffffffffffffffffffffffffff1673ffffffffffffffffffffffffffffffffffffffff16815260200190815260200160002081905550505b600073ffffffffffffffffffffffffffffffffffffffff168273ffffffffffffffffffffffffffffffffffffffff16036102b45780600260008282540392505081905550610301565b806000808473ffffffffffffffffffffffffffffffffffffffff1673ffffffffffffffffffffffffffffffffffffffff168152602001908152602001600020600082825401925050819055505b8173ffffffffffffffffffffffffffffffffffffffff168373ffffffffffffffffffffffffffffffffffffffff167fddf252ad1be2c89b69c2b068fc378daa952ba7f163c4a11628f55a4df523b3ef8360405161035e9190610792565b60405180910390a3505050565b600081519050919050565b7f4e487b7100000000000000000000000000000000000000000000000000000000600052604160045260246000fd5b7f4e487b7100000000000000000000000000000000000000000000000000000000600052602260045260246000fd5b600060028204905060018216806103ec57607f821691505b6020821081036103ff576103fe6103a5565b5b50919050565b60008190508160005260206000209050919050565b60006020601f8301049050919050565b600082821b905092915050565b6000600883026104677fffffffffffffffffffffffffffffffffffffffffffffffffffffffffffffffff8261042a565b610471868361042a565b95508019841693508086168417925050509392505050565b6000819050919050565b6000819050919050565b60006104b86104b36104ae84610489565b610493565b610489565b9050919050565b6000819050919050565b6104d28361049d565b6104e66104de826104bf565b848454610437565b825550505050565b600090565b6104fb6104ee565b6105068184846104c9565b505050565b5b8181101561052a5761051f6000826104f3565b60018101905061050c565b5050565b601f82111561056f5761054081610405565b6105498461041a565b81016020851015610558578190505b61056c6105648561041a565b83018261050b565b50505b505050565b600082821c905092915050565b600061059260001984600802610574565b1980831691505092915050565b60006105ab8383610581565b9150826002028217905092915050565b6105c48261036b565b67ffffffffffffffff8111156105dd576105dc610376565b5b6105e782546103d4565b6105f282828561052e565b600060209050601f8311600181146106255760008415610613578287015190505b61061d858261059f565b865550610685565b601f19841661063386610405565b60005b8281101561065b57848901518255600182019150602085019450602081019050610636565b868310156106785784890151610674601f891682610581565b8355505b6001600288020188555050505b505050505050565b600073ffffffffffffffffffffffffffffffffffffffff82169050919050565b60006106b88261068d565b9050919050565b6106c8816106ad565b82525050565b60006020820190506106e360008301846106bf565b92915050565b7f4e487b7100000000000000000000000000000000000000000000000000000000600052601160045260246000fd5b600061072382610489565b915061072e83610489565b9250828201905080821115610746576107456106e9565b5b92915050565b61075581610489565b82525050565b600060608201905061077060008301866106bf565b61077d602083018561074c565b61078a604083018461074c565b949350505050565b60006020820190506107a7600083018461074c565b92915050565b610f87806107bc6000396000f3fe608060405234801561001057600080fd5b50600436106100a95760003560e01c806342966c681161007157806342966c681461016857806370a082311461018457806379cc6790146101b457806395d89b41146101d0578063a9059cbb146101ee578063dd62ed3e1461021e576100a9565b806306fdde03146100ae578063095ea7b3146100cc57806318160ddd146100fc57806323b872dd1461011a578063313ce5671461014a575b600080fd5b6100b661024e565b6040516100c39190610bae565b60405180910390f35b6100e660048036038101906100e19190610c69565b6102e0565b6040516100f39190610cc4565b60405180910390f35b610104610303565b6040516101119190610cee565b60405180910390f35b610134600480360381019061012f9190610d09565b61030d565b6040516101419190610cc4565b60405180910390f35b61015261033c565b60405161015f9190610d78565b60405180910390f35b610182600480360381019061017d9190610d93565b610345565b005b61019e60048036038101906101999190610dc0565b610359565b6040516101ab9190610cee565b60405180910390f35b6101ce60048036038101906101c99190610c69565b6103a1565b005b6101d86103c1565b6040516101e59190610bae565b60405180910390f35b61020860048036038101906102039190610c69565b610453565b6040516102159190610cc4565b60405180910390f35b61023860048036038101906102339190610ded565b610476565b6040516102459190610cee565b60405180910390f35b60606003805461025d90610e5c565b80601f016020809104026020016040519081016040528092919081815260200182805461028990610e5c565b80156102d65780601f106102ab576101008083540402835291602001916102d6565b820191906000526020600020905b8154815290600101906020018083116102b957829003601f168201915b5050505050905090565b6000806102eb6104fd565b90506102f8818585610505565b600191505092915050565b6000600254905090565b6000806103186104fd565b9050610325858285610517565b6103308585856105ac565b60019150509392505050565b60006012905090565b6103566103506104fd565b826106a0565b50565b60008060008373ffffffffffffffffffffffffffffffffffffffff1673ffffffffffffffffffffffffffffffffffffffff168152602001908152602001600020549050919050565b6103b3826103ad6104fd565b83610517565b6103bd82826106a0565b5050565b6060600480546103d090610e5c565b80601f01602080910402602001604051908101604052809291908181526020018280546103fc90610e5c565b80156104495780601f1061041e57610100808354040283529160200191610449565b820191906000526020600020905b81548152906001019060200180831161042c57829003601f168201915b5050505050905090565b60008061045e6104fd565b905061046b8185856105ac565b600191505092915050565b6000600160008473ffffffffffffffffffffffffffffffffffffffff1673ffffffffffffffffffffffffffffffffffffffff16815260200190815260200160002060008373ffffffffffffffffffffffffffffffffffffffff1673ffffffffffffffffffffffffffffffffffffffff16815260200190815260200160002054905092915050565b600033905090565b6105128383836001610722565b505050565b60006105238484610476565b90507fffffffffffffffffffffffffffffffffffffffffffffffffffffffffffffffff8110156105a65781811015610596578281836040517ffb8f41b200000000000000000000000000000000000000000000000000000000815260040161058d93929190610e9c565b60405180910390fd5b6105a584848484036000610722565b5b50505050565b600073ffffffffffffffffffffffffffffffffffffffff168373ffffffffffffffffffffffffffffffffffffffff160361061e5760006040517f96c6fd1e0000000000000000000000000000000000000000000000000000000081526004016106159190610ed3565b60405180910390fd5b600073ffffffffffffffffffffffffffffffffffffffff168273ffffffffffffffffffffffffffffffffffffffff16036106905760006040517fec442f050000000000000000000000000000000000000000000000000000000081526004016106879190610ed3565b60405180910390fd5b61069b8383836108f9565b505050565b600073ffffffffffffffffffffffffffffffffffffffff168273ffffffffffffffffffffffffffffffffffffffff16036107125760006040517f96c6fd1e0000000000000000000000000000000000000000000000000000000081526004016107099190610ed3565b60405180910390fd5b61071e826000836108f9565b5050565b600073ffffffffffffffffffffffffffffffffffffffff168473ffffffffffffffffffffffffffffffffffffffff16036107945760006040517fe602df0500000000000000000000000000000000000000000000000000000000815260040161078b9190610ed3565b60405180910390fd5b600073ffffffffffffffffffffffffffffffffffffffff168373ffffffffffffffffffffffffffffffffffffffff16036108065760006040517f94280d620000000000000000000000000000000000000000000000000000000081526004016107fd9190610ed3565b60405180910390fd5b81600160008673ffffffffffffffffffffffffffffffffffffffff1673ffffffffffffffffffffffffffffffffffffffff16815260200190815260200160002060008573ffffffffffffffffffffffffffffffffffffffff1673ffffffffffffffffffffffffffffffffffffffff1681526020019081526020016000208190555080156108f3578273ffffffffffffffffffffffffffffffffffffffff168473ffffffffffffffffffffffffffffffffffffffff167f8c5be1e5ebec7d5bd14f71427d1e84f3dd0314c0f7b2291e5b200ac8c7c3b925846040516108ea9190610cee565b60405180910390a35b50505050565b600073ffffffffffffffffffffffffffffffffffffffff168373ffffffffffffffffffffffffffffffffffffffff160361094b57806002600082825461093f9190610f1d565b92505081905550610a1e565b60008060008573ffffffffffffffffffffffffffffffffffffffff1673ffffffffffffffffffffffffffffffffffffffff168152602001908152602001600020549050818110156109d7578381836040517fe450d38c0000000000000000000000000000000000000000000000000000000081526004016109ce93929190610e9c565b60405180910390fd5b8181036000808673ffffffffffffffffffffffffffffffffffffffff1673ffffffffffffffffffffffffffffffffffffffff16815260200190815260200160002081905550505b600073ffffffffffffffffffffffffffffffffffffffff168273ffffffffffffffffffffffffffffffffffffffff1603610a675780600260008282540392505081905550610ab4565b806000808473ffffffffffffffffffffffffffffffffffffffff1673ffffffffffffffffffffffffffffffffffffffff168152602001908152602001600020600082825401925050819055505b8173ffffffffffffffffffffffffffffffffffffffff168373ffffffffffffffffffffffffffffffffffffffff167fddf252ad1be2c89b69c2b068fc378daa952ba7f163c4a11628f55a4df523b3ef83604051610b119190610cee565b60405180910390a3505050565b600081519050919050565b600082825260208201905092915050565b60005b83811015610b58578082015181840152602081019050610b3d565b60008484015250505050565b6000601f19601f8301169050919050565b6000610b8082610b1e565b610b8a8185610b29565b9350610b9a818560208601610b3a565b610ba381610b64565b840191505092915050565b60006020820190508181036000830152610bc88184610b75565b905092915050565b600080fd5b600073ffffffffffffffffffffffffffffffffffffffff82169050919050565b6000610c0082610bd5565b9050919050565b610c1081610bf5565b8114610c1b57600080fd5b50565b600081359050610c2d81610c07565b92915050565b6000819050919050565b610c4681610c33565b8114610c5157600080fd5b50565b600081359050610c6381610c3d565b92915050565b60008060408385031215610c8057610c7f610bd0565b5b6000610c8e85828601610c1e565b9250506020610c9f85828601610c54565b9150509250929050565b60008115159050919050565b610cbe81610ca9565b82525050565b6000602082019050610cd96000830184610cb5565b92915050565b610ce881610c33565b82525050565b6000602082019050610d036000830184610cdf565b92915050565b600080600060608486031215610d2257610d21610bd0565b5b6000610d3086828701610c1e565b9350506020610d4186828701610c1e565b9250506040610d5286828701610c54565b9150509250925092565b600060ff82169050919050565b610d7281610d5c565b82525050565b6000602082019050610d8d6000830184610d69565b92915050565b600060208284031215610da957610da8610bd0565b5b6000610db784828501610c54565b91505092915050565b600060208284031215610dd657610dd5610bd0565b5b6000610de484828501610c1e565b91505092915050565b60008060408385031215610e0457610e03610bd0565b5b6000610e1285828601610c1e565b9250506020610e2385828601610c1e565b9150509250929050565b7f4e487b7100000000000000000000000000000000000000000000000000000000600052602260045260246000fd5b60006002820490506001821680610e7457607f821691505b602082108103610e8757610e86610e2d565b5b50919050565b610e9681610bf5565b82525050565b6000606082019050610eb16000830186610e8d565b610ebe6020830185610cdf565b610ecb6040830184610cdf565b949350505050565b6000602082019050610ee86000830184610e8d565b92915050565b7f4e487b7100000000000000000000000000000000000000000000000000000000600052601160045260246000fd5b6000610f2882610c33565b9150610f3383610c33565b9250828201905080821115610f4b57610f4a610eee565b5b9291505056fea264697066735822122088ff182b103d21b0aed1ed1a12b16d7e11a62aaeefb11d86d448b64ec4b0bbd264736f6c634300081c0033",
  "linkReferences": {},
  "deployedLinkReferences": {}
}