{
  "_format": "hh-sol-artifact-1",
  "contractName": "StakeManager",
  "sourceName": "contracts/StakeManager.sol",
  "abi": [
    {
      "inputs": [
        {
          "internalType": "address",
          "name": "_token",
          "type": "address"
        },
        {
          "internalType": "address",
          "name": "_burner",
          "type": "address"
        }
      ],
      "stateMutability": "nonpayable",
      "type": "constructor"
    },
    {
      "anonymous": false,
      "inputs": [
        {
          "indexed": false,
          "internalType": "address",
          "name": "addr",
          "type": "address"
        },
        {
          "indexed": false,
          "internalType": "string",
          "name": "source",
          "type": "string"
        }
      ],
      "name": "AddressTagged",
      "type": "event"
    },
    {
      "anonymous": false,
      "inputs": [
        {
          "indexed": true,
          "internalType": "address",
          "name": "user",
          "type": "address"
        },
        {
          "indexed": false,
          "internalType": "uint256",
          "name": "amount",
          "type": "uint256"
        }
      ],
      "name": "Burned",
      "type": "event"
    },
    {
      "anonymous": false,
      "inputs": [
        {
          "indexed": true,
          "internalType": "address",
          "name": "user",
          "type": "address"
        },
        {
          "indexed": false,
          "internalType": "uint256",
          "name": "amount",
          "type": "uint256"
        }
      ],
      "name": "Staked",
      "type": "event"
    },
    {
      "inputs": [
        {
          "internalType": "address",
          "name": "user",
          "type": "address"
        },
        {
          "internalType": "uint256",
          "name": "amount",
          "type": "uint256"
        }
      ],
      "name": "burnFromStake",
      "outputs": [],
      "stateMutability": "nonpayable",
      "type": "function"
    },
    {
      "inputs": [],
      "name": "burner",
      "outputs": [
        {
          "internalType": "address",
          "name": "",
          "type": "address"
        }
      ],
      "stateMutability": "view",
      "type": "function"
    },
    {
      "inputs": [
        {
          "internalType": "uint256",
          "name": "amount",
          "type": "uint256"
        }
      ],
      "name": "stake",
      "outputs": [],
      "stateMutability": "nonpayable",
      "type": "function"
    },
    {
      "inputs": [
        {
          "internalType": "address",
          "name": "",
          "type": "address"
        }
      ],
      "name": "staked",
      "outputs": [
        {
          "internalType": "uint256",
          "name": "",
          "type": "uint256"
        }
      ],
      "stateMutability": "view",
      "type": "function"
    },
    {
      "inputs": [],
      "name": "token",
      "outputs": [
        {
          "internalType": "contract IERC20",
          "name": "",
          "type": "address"
        }
      ],
      "stateMutability": "view",
      "type": "function"
    }
  ],
  "bytecode": "0x60c060405234801561001057600080fd5b50604051610c19380380610c1983398181016040528101906100329190610104565b8173ffffffffffffffffffffffffffffffffffffffff1660808173ffffffffffffffffffffffffffffffffffffffff16815250508073ffffffffffffffffffffffffffffffffffffffff1660a08173ffffffffffffffffffffffffffffffffffffffff16815250505050610144565b600080fd5b600073ffffffffffffffffffffffffffffffffffffffff82169050919050565b60006100d1826100a6565b9050919050565b6100e1816100c6565b81146100ec57600080fd5b50565b6000815190506100fe816100d8565b92915050565b6000806040838503121561011b5761011a6100a1565b5b6000610129858286016100ef565b925050602061013a858286016100ef565b9150509250929050565b60805160a051610a9b61017e6000396000818161010201526102c80152600081816101810152818161042c01526105400152610a9b6000f3fe608060405234801561001057600080fd5b50600436106100575760003560e01c806327810b6e1461005c57806398807d841461007a578063a694fc3a146100aa578063e0f06bd2146100c6578063fc0c546a146100e2575b600080fd5b610064610100565b60405161007191906105a3565b60405180910390f35b610094600480360381019061008f91906105ef565b610124565b6040516100a19190610635565b60405180910390f35b6100c460048036038101906100bf919061067c565b61013c565b005b6100e060048036038101906100db91906106a9565b6102c6565b005b6100ea61053e565b6040516100f79190610748565b60405180910390f35b7f000000000000000000000000000000000000000000000000000000000000000081565b60006020528060005260406000206000915090505481565b6000811161017f576040517f08c379a0000000000000000000000000000000000000000000000000000000008152600401610176906107c0565b60405180910390fd5b7f000000000000000000000000000000000000000000000000000000000000000073ffffffffffffffffffffffffffffffffffffffff166323b872dd3330846040518463ffffffff1660e01b81526004016101dc939291906107e0565b6020604051808303816000875af11580156101fb573d6000803e3d6000fd5b505050506040513d601f19601f8201168201806040525081019061021f919061084f565b50806000803373ffffffffffffffffffffffffffffffffffffffff1673ffffffffffffffffffffffffffffffffffffffff168152602001908152602001600020600082825461026e91906108ab565b925050819055503373ffffffffffffffffffffffffffffffffffffffff167f9e71bc8eea02a63969f509818f2dafb9254532904319f9dbda79b67bd34a5f3d826040516102bb9190610635565b60405180910390a250565b7f000000000000000000000000000000000000000000000000000000000000000073ffffffffffffffffffffffffffffffffffffffff163373ffffffffffffffffffffffffffffffffffffffff1614610354576040517f08c379a000000000000000000000000000000000000000000000000000000000815260040161034b9061092b565b60405180910390fd5b806000808473ffffffffffffffffffffffffffffffffffffffff1673ffffffffffffffffffffffffffffffffffffffff1681526020019081526020016000205410156103d5576040517f08c379a00000000000000000000000000000000000000000000000000000000081526004016103cc90610997565b60405180910390fd5b806000808473ffffffffffffffffffffffffffffffffffffffff1673ffffffffffffffffffffffffffffffffffffffff168152602001908152602001600020600082825461042391906109b7565b925050819055507f000000000000000000000000000000000000000000000000000000000000000073ffffffffffffffffffffffffffffffffffffffff166342966c68826040518263ffffffff1660e01b81526004016104839190610635565b600060405180830381600087803b15801561049d57600080fd5b505af11580156104b1573d6000803e3d6000fd5b505050508173ffffffffffffffffffffffffffffffffffffffff167f696de425f79f4a40bc6d2122ca50507f0efbeabbff86a84871b7196ab8ea8df7826040516104fb9190610635565b60405180910390a27fbe6b277104e6619e95b16fac43d8fc9a4f23484dd394e83e1d9062887c5a8294826040516105329190610a37565b60405180910390a15050565b7f000000000000000000000000000000000000000000000000000000000000000081565b600073ffffffffffffffffffffffffffffffffffffffff82169050919050565b600061058d82610562565b9050919050565b61059d81610582565b82525050565b60006020820190506105b86000830184610594565b92915050565b600080fd5b6105cc81610582565b81146105d757600080fd5b50565b6000813590506105e9816105c3565b92915050565b600060208284031215610605576106046105be565b5b6000610613848285016105da565b91505092915050565b6000819050919050565b61062f8161061c565b82525050565b600060208201905061064a6000830184610626565b92915050565b6106598161061c565b811461066457600080fd5b50565b60008135905061067681610650565b92915050565b600060208284031215610692576106916105be565b5b60006106a084828501610667565b91505092915050565b600080604083850312156106c0576106bf6105be565b5b60006106ce858286016105da565b92505060206106df85828601610667565b9150509250929050565b6000819050919050565b600061070e61070961070484610562565b6106e9565b610562565b9050919050565b6000610720826106f3565b9050919050565b600061073282610715565b9050919050565b61074281610727565b82525050565b600060208201905061075d6000830184610739565b92915050565b600082825260208201905092915050565b7f616d6f756e74203d203000000000000000000000000000000000000000000000600082015250565b60006107aa600a83610763565b91506107b582610774565b602082019050919050565b600060208201905081810360008301526107d98161079d565b9050919050565b60006060820190506107f56000830186610594565b6108026020830185610594565b61080f6040830184610626565b949350505050565b60008115159050919050565b61082c81610817565b811461083757600080fd5b50565b60008151905061084981610823565b92915050565b600060208284031215610865576108646105be565b5b60006108738482850161083a565b91505092915050565b7f4e487b7100000000000000000000000000000000000000000000000000000000600052601160045260246000fd5b60006108b68261061c565b91506108c18361061c565b92508282019050808211156108d9576108d861087c565b5b92915050565b7f6e6f7420617574686f72697a6564000000000000000000000000000000000000600082015250565b6000610915600e83610763565b9150610920826108df565b602082019050919050565b6000602082019050818103600083015261094481610908565b9050919050565b7f696e73756666696369656e74207374616b650000000000000000000000000000600082015250565b6000610981601283610763565b915061098c8261094b565b602082019050919050565b600060208201905081810360008301526109b081610974565b9050919050565b60006109c28261061c565b91506109cd8361061c565b92508282039050818111156109e5576109e461087c565b5b92915050565b7f7374616b652d6275726e00000000000000000000000000000000000000000000600082015250565b6000610a21600a83610763565b9150610a2c826109eb565b602082019050919050565b6000604082019050610a4c6000830184610594565b8181036020830152610a5d81610a14565b90509291505056fea26469706673582212203ab6837891e01eeceb4da70b311040c64211a32b889ee5ce2fb8ab5aaaef474964736f6c634300081c0033",
  "linkReferences": {},
  "deployedLinkReferences": {}
}